:020000023000CC
:10FC00000D9472FE0D9486FE0D9486FE0D9486FE74
:10FC10000D9486FE0D9486FE0D9486FE0D9486FE50
:10FC20000D9486FE0D9486FE0D9486FE0D9486FE40
:10FC30000D9486FE0D9486FE0D9486FE0D9486FE30
:10FC40000D9486FE0D9486FE0D9486FE0D9486FE20
:10FC50000D9486FE0D9486FE0D9486FE0D9486FE10
:10FC60000D9486FE0D9486FE0D9486FE0D9486FE00
:10FC70000D9486FE0D9486FE0D9486FE0D9486FEF0
:10FC80000D9486FE0D9486FE0D9486FE0D9486FEE0
:10FC90000D9486FE0D9486FE0D9486FE0D9486FED0
:10FCA0000D9486FE0D9486FE0D9486FE0D9486FEC0
:10FCB0000D9486FE0D9486FE0D9486FE0D9486FEB0
:10FCC0000D9486FE0D9486FE0D9486FE0D9486FEA0
:10FCD0000D9486FE0D9486FE0D9486FE0D9486FE90
:10FCE0000D9486FE11241FBECFEFD1E2DEBFCDBF43
:10FCF00001E00CBF23E0A0E0B2E001C01D92A03003
:10FD0000B207E1F70F94FEFE0D94B7FF0D9400FECD
:10FD1000CF92DF92EF92FF920F931F93CF93DF93D7
:10FD20006B017C016FB7F894F999FECFDA01EA0113
:10FD3000D3959701860141E05C9111968C911197C2
:10FD400090E0982F8827850F911D0C01F8012093D2
:10FD50005B0040935700E895112412960E5F1F4FE9
:10FD60002F4F3F4FAC17BD0739F785E0F601E09202
:10FD70005B0080935700E89507B600FCFDCF81E15A
:10FD800080935700E8956FBFDF91CF911F910F913E
:10FD9000FF90EF90DF90CF9008954FB7F894F999C6
:10FDA000FECF80E090E0DC0133E021E1FC01A09394
:10FDB0005B0030935700E89507B600FCFDCF209319
:10FDC0005700E8959F5FAF4FBF4F81155CEF9507D8
:10FDD00053E0A507B10551F74FBF0895E0ECF0E0FF
:10FDE00080818823ECF78091C6000895E0ECF0E074
:10FDF000908195FFFDCF8093C6000895CF92DF924A
:10FE0000EF92FF921F93CF93DF9388E18093C1001D
:10FE100086E08093C20088E08093C4008091C00097
:10FE20008823C4F080E090E0E0ECF0E001962FEF52
:10FE300031EE44E0215030404040E1F700C0000086
:10FE40002081222324F08431910581F776C04497E4
:10FE500008F073C08091C600833209F06EC00F9421
:10FE6000CDFE81E60F94F6FE0F94EEFE882321F07E
:10FE70000F94EEFE8111FCCF0F94EEFE0F94EEFE78
:10FE8000C82F813209F450C0C12CD12C0F2EF0E0C4
:10FE9000EF2EF3E0FF2EF02DCF3371F481E60F94B7
:10FEA000F6FE0F94EEFEC82E0F94EEFED12CDC2C45
:10FEB000CC24C82A0F94EEFEC0E0D2E010E00F94EC
:10FEC000EEFE8993180FCE15DF05C9F7812F8195B6
:10FED0000F94F6FE8FEF91EE24E081509040204089
:10FEE000E1F700C000000F94EEFEC82F843271F1DC
:10FEF0003CEFC31633E0D30678F4C601A0E0B0E0CF
:10FF00006627782F892F9A2F40E052E00F9488FEC1
:10FF10004FEFC41AD40A05C08CEFC81683E0D80688
:10FF200019F0C13209F0B8CF1092C1001092C2008E
:10FF30001092C4000C94000010C01092C1001092E6
:10FF4000C2001092C4000C94000007C09CEFC916B8
:10FF500093E0D90609F0A0CFE7CF80E090E0DF91F1
:10FF6000CF911F91FF90EF90DF90CF900895F8947C
:02FF7000FFCFC1
:040000033000FC00CD
:00000001FF
